:020000040800F2
:10000000B812002045010008992100084D1A000887
:100010007D210008B10A00085D3E000800000000D4
:100020000000000000000000000000001728000889
:1000300021140008000000000B24000855320008BD
:10004000B142000809240008FD320008FB25000821
:10005000B9150008E9250008BD140008C1140008FE
:10006000C3140008C5140008C9140008F50F0008DF
:10007000F70F0008F90F0008FB0F0008FD0F00083C
:10008000FF0F000801100008AB0A0008A93B000898
:10009000553C0008D90A0008DB0A000829150008A9
:1000A000FF3200084F3400084D34000801330008C7
:1000B0005134000853340008B93500087B1A000891
:1000C000791A00087F1A00087D1A0008FF25000829
:1000D00001260008653700082D380008FD380008A3
:1000E000BF140008F9250008713B00080337000819
:1000F000093700080737000805370008AD0A00086F
:100100004F160008FD250008FD36000803260008EC
:100110006137000863370008FF3600080137000820
:100120000310000805100008071000080910000857
:10013000DFF80CD000F0E0FB00480047695C0008E5
:10014000B81200200648804706480047FEE7FEE751
:10015000FEE7FEE7FEE7FEE7FEE7FEE7FEE7FEE777
:100160009D32000831010008F0B480EA0102D40F8A
:100170004200B2EB410F02D20246084611464A0045
:1001800042D0C30DDDB2C1F3C752AD1A202D35DA0E
:10019000C1F3160141F4000204B15242C5F1200638
:1001A00002FA06F12A411044B3EBD05F23D0C4B168
:1001B000012DA0EBC35009DCF0BC4FF0004202EA75
:1001C000C352DBB200F5000000F00ABB400000F1B2
:1001D000807000EBC350A0F1807040EAD1704900FC
:1001E00009E0490841EAC071A0EBC35000F50000E6
:1001F000400800EBC350F0BC00F0E9BA61420122B4
:1002000002EB4101001BF6E7F0BC704781F00041B2
:10021000AAE780F00040A7E780EA010210B502F0EB
:100220000043400022D04A001FD0010E01EB1261B2
:10023000C0F35600C2F3560240F4000042F400023C
:10024000A0FB022000047F39140400D0401C50EAB7
:10025000124001D44000491EC2B20C0604EBD0107B
:10026000401C4008802A02D003E0002010BD20F08E
:100270000100002900DA0020184310BD30B480EAE4
:10028000010202F0004530F0004221F0004013D09E
:1002900090B1C30DD40DC2F31601C0F31600E41AD9
:1002A00041F4000140F400027D34914201D3641C0A
:1002B00000E04900002C02DA30BC002070474FF407
:1002C00000000023914201D3891A034340084FEAFA
:1002D0004101F7D151B1914202D14FF0004105E007
:1002E00002D24FF0010101E06FF0010103EBC450B5
:1002F000284430BC00F06BBA2DE9FE4F804681EAFD
:100300000300C00F0C46009021F0004123F000458F
:10031000B8EB0200A94105D24046214690461C4652
:100320000B46024623F00040104347D0270DC7F389
:100330000A00C3F30A510290401A019040286BDA78
:10034000C3F3130040F4801B0098924620B10023B1
:10035000D2EB030A63EB0B0B01985946C0F1400244
:10036000504600F003FA06460D4650465946019A9B
:1003700000F01BFA10EB08006141002487EA1152DB
:1003800084EAE7731A4340D0009A62B3019A012AC3
:100390004FEA075215DC001B61EB02014FF00042EF
:1003A00002EA0752CDE90042001C41F580113246B5
:1003B0002B4600F052FA03B0BDE8F08F40462146CC
:1003C000F9E7001B61EB0201001C41F580130018E6
:1003D0005B412018A2F5001747EB030140EAD570F6
:1003E000B6196D4111E06D084FEA360645EAC07551
:1003F0004FEA0752001B61EB0201001C41F580111E
:1004000049084FEA30000019514132462B4603B0EB
:10041000BDE8F04F00F012BA00980122400000231E
:10042000D0EB020263EBE073009821464FEAE074E0
:10043000B8EB000061EB0401E9E783F000435BE700
:1004400081F0004158E72DE9FE4F81EA030404F0F2
:10045000004421F0004100944FF0000B23F00043D2
:1004600050EA01045ED052EA03045BD0C3F30A549D
:10047000C1F30A552C44A4F2F3340194A0FB0254B6
:10048000C1F3130141F48011C3F3130343F4801348
:1004900001FB024400FB034E840A970A44EA81549C
:1004A00047EA8357A4FB076802958D0A05FB078579
:1004B0004FEA932C04FB0C542705029D4FEA065883
:1004C00047EA1637B5EB08056EEB070C870E920E60
:1004D00047EA811742EA8312A7FB0201B6EB0B0140
:1004E00064EB00042B0D43EA0C335E1844EB1C5004
:1004F000DA465146E7FB0201C5F313044FEA0B331A
:1005000043EA14534FEA0432019C43EA0603A4F180
:100510000C040294009CCDE900B400F09EF903B0F5
:10052000BDE8F08F00200146F9E72DE9F04D81EAA2
:10053000030404F0004B21F0004514464FF0000A7C
:1005400023F0004150EA050220D054EA01021DD0F8
:10055000C5F30A570246C5F31303C1F31300C1F3F1
:100560000A5640F4801543F48013A7EB0608101BCD
:10057000D64608F2FD3873EB050002D308F10108F6
:1005800001E092185B41B8F1000F03DA0020014648
:10059000BDE8F08D00204FF48011064684460EE041
:1005A000171B73EB050705D3121B63EB050306430B
:1005B0004CEA010C49084FEA300092185B4150EABE
:1005C0000107EDD152EA030012D082EA040083EA67
:1005D0000501084305D0101BAB4106D201220023C0
:1005E00006E000224FF0004302E06FF001025310DA
:1005F0001AEB06004CEB085110EB0A0041EB0B0123
:10060000BDE8F04D00F01AB9C10F80EAE07008446F
:10061000CA079623002100F0E3B80EB5C10F80EAA7
:10062000E0700844CA07002140F233438DE80E0011
:100630000A460B4600F011F903B000BD0EB540F2BA
:10064000334102910021CDE900110A460B4600F02A
:1006500004F903B000BD00F0004220F00040C10DDD
:10066000C0F3160040F400007F2901DA0020704733
:10067000962903DCC1F19601C84001E09639884013
:10068000002AF4D04042704770B5C1F30A5201F01D
:1006900000450024C1F3130140F2FF3341F48011FF
:1006A0009A4201DA002070BD40F233439A42A2F22E
:1006B000334203DC524200F068F800E090402C43E3
:1006C000F1D0404270BDC1F30A5210B5C1F313011D
:1006D00040F2FF3341F480119A4201DA002010BD4C
:1006E00040F233439A42A2F2334203DC524200F01A
:1006F0004CF810BD904010BD00F0004230F00040BA
:100700000AD0C10D01F56071C0F3160042EA015133
:10071000C20840071143704700200146704701F0AE
:10072000004330B421F0004150EA010206D00A0D26
:10073000A2F56072C1F31301002A02DC30BC002074
:100740007047440F44EAC104C100E01830BC00EB1C
:10075000C25000F03CB80000002801DBC0F10040AE
:10076000002901DBC1F1004181427047202A04DBEE
:10077000203A00FA02F1002070479140C2F12003B4
:1007800020FA03F3194390407047202A04DB203AF3
:1007900021FA02F00021704721FA02F3D040C2F1A1
:1007A00020029140084319467047202A06DBCB17E8
:1007B000203A41FA02F043EAE07306E041FA02F31C
:1007C000D040C2F1200291400843194670470029E9
:1007D000A8BF7047401C490008BF20F001007047C7
:1007E00010B4B0FA80FC00FA0CF050EA010404BF27
:1007F00010BC704749B1CCF1200421FA04F411FA7D
:100800000CF118BF012121430843A3EB0C01CB1DC0
:100810004FEA00614FEA102042BF002010BC704731
:1008200000EBC35010440029A4BF10BC7047401C0B
:10083000490008BF20F0010010BC704710B5141E1D
:1008400073F1000408DA401C41F1000192185B4189
:100850001A4301D120F0010010BD2DE9F04D924660
:100860009B4611B1B1FA81F202E0B0FA80F2203277
:100870009046FFF77BFF04460F4640EA0A0041EA34
:100880000B0153465A46084313D0114653EA010060
:1008900019D0C8F140025046FFF777FF05460E46D3
:1008A000504659464246FFF761FF084305D00120F4
:1008B00004E020463946BDE8F08D0020054346EAB5
:1008C000E0762C4337430A986305E40AA0EB08005E
:1008D0000022FD0A44EA47540A3002D500200146AE
:1008E000E9E7010510196941DDE908450019694189
:1008F000BDE8F04DA2E70000064C074D06E0E068B9
:1009000040F0010394E8070098471034AC42F6D356
:10091000FFF712FC0C6600082C66000870B58C18F6
:1009200010F8015B15F0070301D110F8013B2A1103
:1009300006D110F8012B03E010F8016B01F8016BF0
:100940005B1EF9D12B0705D40023521E0DD401F8EC
:10095000013BFAE710F8013BCB1A921C03E013F8B5
:10096000015B01F8015B521EF9D5A142D8D30020EA
:1009700070BD000010B52F48008800283BDD2D48D1
:100980000088401E2B49088000241DE0294800886B
:1009900040F2FF11884203D10020274941F824008A
:1009A000254850F82410254830F9140008442249FD
:1009B00041F82400084650F82400401201B22048B3
:1009C00020F81410601CC4B2032CDFDB1948008827
:1009D00088B91B48801EC088A0F5007001B2184875
:1009E000801EC18000201749C88400211548018558
:1009F000012005F021FD11481838008B1049891E8F
:100A00004988401A00B20D49183908830846418BBD
:100A10000B48801E8088081A01B2084818384183A4
:100A2000818B0748801EC088081A01B20348183815
:100A3000818310BD90000020B8060020140400201F
:100A4000840400209404002010B53B21682004F0A9
:100A500031FC104840780F49097840EA012000B283
:100A6000C0100D4908830B48C0780A49897840EACC
:100A7000012000B2C1100848418306484079054969
:100A8000097940EA012000B2C11003488183FFF7D1
:100A900071FF10BDD8010020FC03002010B510220A
:100AA0001C21682004F080FC10BD704770470000D6
:100AB00008E0012004490880091D0880091D0880FC
:100AC000091D0880F5E70000340400400146CAB261
:100AD0000B1243EA022070477047704710B500249C
:100AE00073E147F6FF70BF490860BF48008800F017
:100AF0000F00BE4908700846007800287ED1B9482A
:100B00004438006800F44050B9490880B54844387A
:100B1000006800F03000B7490880B24944390968DC
:100B20004BF68F7201EA020080F40050AD4944395F
:100B30000860096848F6BF7201EA020080F02000F0
:100B4000A84944390860A848008800F0100000282F
:100B500038D10846006848F60F710840A149443969
:100B6000086001F0E7F89F49443909684BF68F7235
:100B700001EA02009E49098801F4805109B180F41C
:100B800080509B49098801F4005109B180F400505C
:100B9000944944390860096848F6BF7201EA0200C6
:100BA0009449097801F0100109B180F010009149D1
:100BB000097801F0200109B180F020008949443909
:100BC000086010BD87484438006884B204F0800093
:100BD000D8B384484438006848F60F71084081490A
:100BE0004439086001F0A6F87E49443909684BF69B
:100BF0008F7201EA02007E49098800E0A6E001F454
:100C0000805109B180F480507949098801F400517C
:100C100009B180F40050734944390860096848F606
:100C2000BF7201EA02007349097801F0100109B1AD
:100C300080F010006F49097801F0200109B180F0BF
:100C40002000684944390860BBE7FFE704F400600E
:100C5000D8B3644844380068C0F30E0048F68F717A
:100C6000084060494439086001F0CCFF5D494439CF
:100C700009684BF68F7201EA02005D49098801F4A8
:100C8000805109B180F480505949098801F400511C
:100C900009B180F40050534944390860096848F6A6
:100CA000BF7201EA02005349097801F0100109B14D
:100CB00080F010004F49097801F0200109B180F05F
:100CC00020004849443908607BE7FFE704F400400E
:100CD00000287AD0434844380068C0F30E0048F634
:100CE0008F7108403F494439086001F051FB3D498C
:100CF000443909684BF68F7201EA02003C490988C1
:100D000001F4805109B180F480503949098801F417
:100D1000005109B180F40050324944390860096833
:100D200048F6BF7201EA02003249097801F0100169
:100D300009B180F010002F49097801F0200109B1B4
:100D400080F020002749443908603AE727480078B6
:100D5000294901EB8000D0F8000C84B204F4004073
:100D6000C0B12248007801EB8000D0F8000CC0F33D
:100D70000E0048F68F7108401C4909781E4A02EBA4
:100D80008101C1F8000C19490978491E1B4A52F823
:100D90002100804704F08000B8B11448007816495B
:100DA00001EB8000D0F8000C48F60F7108400F49A5
:100DB0000978114A02EB8101C1F8000C0B4909784E
:100DC000491E0F4A52F8210080470648006880B249
:100DD0000549088000F4004000287FF482AE00BF7F
:100DE000EFE60000445C004062030020A403002002
:100DF000A0030020A2030020005000408403002034
:100E0000680300200020574909880F297DD1554AE1
:100E1000811C12F8111001F00702524B411C33F8EB
:100E2000111062F31F21504A51801A46811C12F89A
:100E30001110C1F3C402C11C13F8111001F03F01DD
:100E400042EA4111484A91801A46411D12F8111098
:100E5000C9074A0D011D13F8111042EA8101C21C95
:100E600013F81220C2F3811211433F4AD1801A466F
:100E7000411D12F81110C1F34602811D13F8111023
:100E800001F00F0142EAC111374A11811A46811D52
:100E900012F81110C1F30312C11D13F8111001F063
:100EA0007F0142EA0111304A51811A4600F10901DD
:100EB00012F8111089074A0D00F1080133F81110DA
:100EC00042EA4101C21D13F81220C2F3C0121143BD
:100ED000254A91811A4600F1090112F81110C1F357
:100EE000850200F10A0113F8111001F01F0142EA16
:100EF00081111D4AD1811A4600F10A0112F8111020
:100F0000C1F3421200F10B0100E029E013F81110C7
:100F100042EAC101144A11821A4600F10D0112F889
:100F2000111001F0070200F10C0133F8111062F307
:100F30001F210D4A51821A4600F10D0112F81110BD
:100F4000C1F3C40200F10E0113F8111001F03F01CA
:100F500042EA4111044A918200211A4611855185C5
:100F600070470000240D0020600E00200B4A02EBA9
:100F70008001D1F8001C01F4804169B102EB8001CD
:100F8000D1F8001C48F68F72114041F48041034BA8
:100F900003EB8002C2F8001C7047000000500040C4
:100FA0000B4A02EB8001D1F8001C01F0400169B14D
:100FB00002EB8001D1F8001C48F68F72114041F01D
:100FC0004001034B03EB8002C2F8001C7047000095
:100FD00000500040064A02EB8001D1F8001C48F6A0
:100FE0008F621140024B03EB8002C2F8001C704775
:100FF0000050004070477047704770477047704717
:101000007047704770477047704700002DE9F04700
:101010002848006800F110052E8826480068077AE5
:10102000D6B9042F18D12448007801280FD1002107
:101030002248006880B2801C214A42F810103020FB
:101040002049088000BF00201B49087003E00727E3
:1010500010201C49088027E0AC88A64201D8042053
:1010600000E002200746B44200D93446A0B2A96885
:1010700088478046002000F05FFC8146A2B24946C6
:10108000404602F0F9FEA1B2002001F0EBFC2888F6
:10109000001B288068882044688030200949088027
:1010A00000020949088000BF024909680F72BDE8C3
:1010B000F0870000A8030020D4030020505C00400B
:1010C00000600040A2030020A00300202DE9F041B1
:1010D0002848006800F110042688A068C0B1BEB19D
:1010E000A588B54200D93546A8B2A1688847074609
:1010F0002088401B2080608828446080002000F009
:10110000F9FB8046AAB24146384601F069F900BFB2
:10111000208850B14FF440501749088000210846FC
:1011200001F0A0FC3020154908802088A188884261
:1011300004DB03200F490968087218E020880028A2
:1011400004DD05200B490968087210E0208870B999
:10115000062008490968087200210948006880B221
:10116000801C084A42F81010302004490880BDE86D
:10117000F0810000A8030020A0030020A2030020AB
:10118000505C0040006000402DE9F84F9B4800682B
:1011900045780027BA46062D1BD19848006800788C
:1011A00000F07F00002813D194490968887801284D
:1011B00003D193490968CF690AE0022803D1904915
:1011C00009680F6A04E0032802D18D4909684F6A53
:1011D00094E0002D64D189480068408800285FD1E0
:1011E00086480068C08802285AD18448006800797F
:1011F000002855D181480068007800F07F0028B9A8
:101200007E480068808808B97E4F77E07B48006898
:10121000007800F07F00012810D1784909684879EA
:10122000774909688A6900219047002866D1734888
:101230000068807A002861D0724F5FE06F480068D4
:10124000007800F07F00022858D16C48006840798F
:1012500000F00F0669480068407900F0700967489F
:101260000068407900F0800038B1674901EB8600E2
:10127000D0F8000C00F0300806E0634901EB86006E
:10128000D0F8000C00F4405860480078B04235D9DE
:10129000B9F1000F32D1B8F1000F2FD0594F2DE026
:1012A000082D07D155480068007800F07F0028BB62
:1012B000574F23E00A2D21D150480068007800F0F4
:1012C0007F0001281AD14D480068807AB0B14B48A0
:1012D0000068408890B949480068007970B947486B
:1012E0000068C088012809D14449096848794449FF
:1012F00009688A690021904700B9464F57B13F48B5
:101300000068A0F812A03D48006887610020B84737
:1013100000240FE0394A12685078394A126811697E
:1013200088470446032C05D109203449096808720E
:10133000BDE8F88F31480068008A4FF6FF71884297
:1013400004D109202D4909680872F1E7022C03D065
:101350002A480068008A20B90820284909680872CC
:10136000E6E726480068007800F08000E0B32348F4
:101370000068C088009021480068008A009988426F
:1013800004D91E4900980968088223E01B480068B8
:10139000008A1A490968C98888421BDA1748006818
:1013A000008A1749096891F82C10884203DA002056
:1013B000194908700EE011480068008A1049096850
:1013C00091F82C1090FBF1F201FB120010B90120F2
:1013D000114908700A48006890F82C100748006806
:1013E0008182FFF713FE07E0FFE703200349096846
:1013F000087200030949088000BF99E7A80300208C
:10140000AC030020392F000800500040D802002013
:10141000BD2E00080D2F0008D4030020A0030020DB
:10142000704701460A2000BF021EA0F10103D8B296
:10143000FAD1704710B503210C2003F03BFF11488F
:1014400080781049C97840EA0120404200B20E4934
:1014500088810C4800780B49497840EA01204042D5
:1014600001B20948C181074800790649497940EA33
:10147000012001B20448018211220A210C2003F04C
:1014800093FF10BDD8010020FC0300207047704777
:1014900010B5022000F03EFAC4B222464FF4A0710B
:1014A000054800F09DFF2146034802F00DFC022094
:1014B00001F0B2FA10BD0000980E0020704770478E
:1014C00070477047704700002DE9F041102000F090
:1014D0002DF80F480068A0B904F03CFC0D490860E5
:1014E00009680D4A1268881AFFF7A8F806460B4AE1
:1014F0000B4BFEF7A8FF0446FFF7E5F80949088003
:1015000003E004F027FC04490860BDE8F081000016
:1015100010812142400000203C0000209CC420B0EB
:101520007268913F38000020704700000149086050
:10153000704700001404014030B5044604254FF400
:10154000302000F071F80546042D17D10C480069D1
:1015500040F002000A49086108464461006940F011
:10156000400008614FF4302000F05EF80546044862
:10157000006941F6FD71084001490861284630BD07
:101580000020024004200B49C96801F0010109B1A3
:1015900001200EE00749C96801F0040109B10220E9
:1015A00007E00449C96801F0100109B1032000E017
:1015B0000420704700200240704700000348006983
:1015C00040F080000149086170470000002002409F
:1015D00070B504460D460426F00200F025F80646D4
:1015E000042E11D10948006940F001000749086143
:1015F0002580F00200F018F806460448006941F61C
:10160000FE71084001490861304670BD002002406B
:101610000248034948600348486070472301674512
:1016200000200240AB89EFCD00B502460423FFF74E
:10163000A9FF034603E0FFF7A5FF0346521E012B57
:1016400001D1002AF7D102B90523184600BD704721
:1016500008B501216C2000F03DFF0320ADF800002B
:101660008DF8020010208DF8030069461C4800F038
:101670003FF801211A4800F0C8F80121184800F08D
:10168000C2F84FF43040ADF8000003208DF802009E
:1016900048208DF803004FF48040ADF8000003208F
:1016A0008DF8020048208DF803003E20ADF80000C0
:1016B00003208DF8020028208DF8030069460948B0
:1016C00000F016F80020084908600849C1F88801B0
:1016D000054908310860091D0860091D086008BD3A
:1016E0000008014000180140840123420000234209
:1016F0002DE9F041024600250026002000230024A9
:10170000002791F803C00CF00F0591F803C00CF00E
:10171000100CBCF1000F03D091F802C04CEA050593
:1017200091F800C0BCF1000F31D0146800202BE00C
:101730004FF0010C0CFA00F3B1F800C00CEA0306FC
:101740009E4220D183004FF00F0C0CFA03F7BC43EC
:1017500005FA03FC4CEA040491F803C0BCF1280F1D
:1017600006D14FF0010C0CFA00FCC2F814C00AE0DC
:1017700091F803C0BCF1480F05D14FF0010C0CFAF1
:1017800000FCC2F810C0401C0828D1D31460B1F886
:1017900000C0BCF1FF0F34DD546800202EE000F1E2
:1017A000080C4FF0010808FA0CF3B1F800C00CEA7D
:1017B00003069E4221D183004FF00F0C0CFA03F771
:1017C000BC4305FA03FC4CEA040491F803C0BCF1E5
:1017D000280F05D100F1080C08FA0CF8C2F81480A3
:1017E00091F803C0BCF1480F07D100F1080C4FF08D
:1017F000010808FA0CF8C2F81080401C0828CED363
:101800005460BDE8F081416170470161704700009C
:101810000021334A1288002A25DD00201CE0304ACE
:101820001288B2F5007F03D100222E4B43F820200E
:101830002C4A52F820302C4A32F910201A44294BF5
:1018400043F820201A4652F82020521212B2274B99
:1018500023F81020421CD0B20328E0DB204A128873
:10186000521E1F4B1A80002037E01F4A32F810200A
:101870001E4B33F81030D21A13B21B4A22F8103024
:1018800032F910301A4A32F91020A2F54872934208
:1018900005DA174A32F91020A2F5487212E0124A0E
:1018A00032F91030124A32F9102002F54872934290
:1018B00005DD0F4A32F9102002F5487202E00A4AAB
:1018C00032F9102013B2084A22F8103032F81020F2
:1018D000074B23F81020421CD0B20328C5DB704709
:1018E00094000020AC0600200E040020AE00002072
:1018F000EC01002001460548006880B200EBC10001
:10190000001D034A32F8100080B27047505C00405E
:101910000060004001460648006880B200EBC1004C
:10192000801D044A32F81000C0F30900704700001F
:10193000505C00400060004001460548006880B2ED
:1019400000EBC100034A32F8100080B2704700007B
:10195000505C0040006000400146044A02EB8100F8
:10196000D0F8000C00F0300070470000005000403C
:1019700010B50F4B18681B1D19681B1D1A68A8B1FC
:101980000C4CA070030A2371030CA371030E237285
:10199000A1720B0A23730B0CA3730B0E2374A27496
:1019A000130A2375130CA375130E237610BD0000C4
:1019B000E8F7FF1FB803002010B54321682003F0AB
:1019C00079FC11488078000200B20F49C9780843B9
:1019D000801040420D4948820B480078000200B256
:1019E00009494978084381100848818206480079EE
:1019F000000200B20449497908438010414203487B
:101A0000C182FFF705FF10BDD8010020FC030020B4
:101A100010B580226B21682003F0C6FC322002F052
:101A200041FF03226B21682003F0BEFC03221A2130
:101A3000682003F0B9FC18221B21682003F0B4FCD5
:101A400002223721682003F0AFFC10BD01200849B5
:101A50000880091D0880091D0880091D08800548A7
:101A6000006800F0010000B100BE00BFFEE700000A
:101A700034040040F0ED00E0704770477047704755
:101A800008B50121082000F025FD4FF44040ADF8D5
:101A9000000003208DF8020014208DF80300694631
:101AA0000148FFF725FE08BD000C014030B50024B9
:101AB0001548006840F480401349086000251FE085
:101AC0006006040E1048006840F400400E490860AB
:101AD0000120FFF7A6FC0C480838006800F480409D
:101AE00008B144F001040848001D006840F40040BB
:101AF0000549091D08600120FFF793FC681CC5B269
:101B0000082DDDDB204630BD100C014010B5044629
:101B1000012C06D11148006840F480400F4908604C
:101B200007E00E48001D006840F480400B49091D85
:101B300008600A48006840F4004008490860012035
:101B4000FFF76FFC0548001D006840F400400349A2
:101B5000091D08600120FFF764FC10BD100C014056
:101B600030B504461948006840F400401749086041
:101B7000002528E004F0800040B11448001F0068F0
:101B800040F480401149091F086005E00F480068D3
:101B900040F480400D4908600C48001F006840F484
:101BA00000400A49091F08600120FFF73AFC074876
:101BB000006840F40040054908600120FFF731FC4F
:101BC0006006040E6D1C082DD4D330BD140C0140EA
:101BD00000B52148006840F480401F49086008466D
:101BE000006840F4004008600120FFF71AFC1A4822
:101BF0000838006808B9012000E0002000F48040A7
:101C000000B100BD1448001D006840F48040124936
:101C1000091D08600120FFF704FC0F480838006820
:101C200000F4804000B1ECE70B48001D006840F470
:101C300080400949091D08600120FFF7F2FB0648B2
:101C4000001D006840F400400349091D08600120A0
:101C5000FFF7E7FB00BFD4E7100C014000B51248C6
:101C6000006840F48040104908600846006840F46D
:101C7000004008600120FFF7D4FB0B48001F0068FC
:101C800040F400400849091F08600120FFF7C9FB24
:101C90000548001F006840F480400349091F0860A0
:101CA0000120FFF7BEFB00BD140C014010B5204819
:101CB000006840F480401E4908600120FFF7B1FB36
:101CC0001B48006840F40040194908600120FFF7F4
:101CD000A8FB05E0641C41F28830844200D306E092
:101CE00013480838006800F480400028F2D100BF93
:101CF0000F480838006800F4804060B10C48001DAF
:101D0000006840F400400A49091D08600120FFF7FF
:101D100088FB002010BD0648001D006840F400400C
:101D20000349091D08600120FFF77BFB0120F1E753
:101D3000100C014010B518480068047A022C01D03C
:101D4000042C05D1FFF762F913480068047A1CE0FF
:101D5000062C19D110480068407805280ED10E488D
:101D60000068007800F07F0040B90B490968C87826
:101D700000F0D8FD09490968086A804708490968E0
:101D800088688047082400E00824034909680C7229
:101D900000F03CFB10BD0000A8030020B4030020AD
:101DA000AC0300202DE9F843044600940D49009847
:101DB000A1EB600000900C492046FEF72DFA80460A
:101DC0000099FEF729FA07460099FEF725FA06461C
:101DD0000649FEF71EFA05460099FEF71DFABDE812
:101DE000F8830000F9FF1F5F3736343FF648D73FCE
:101DF00001464906084A926942F00102064B9A617F
:101E0000064A526822F0E062044B5A601A46526851
:101E10000A435A6070470000001002400000014071
:101E200010B5002410E000214A4820F8341000EBDF
:101E3000C4004180474800EBC4008180454800EB66
:101E4000C4008171601CC4B2082CECDB1C20414929
:101E50003A3908700A204870072088701C20C87022
:101E60000A213C483A380171072141711E20394945
:101E70003A394875202137483A3881750021C175B3
:101E8000442034493A3988712D2132483A38C17199
:101E90000021017240202F493A39487219212D48FA
:101EA0003A3881721821C1720F202A493A390873D1
:101EB000002128483A3841738173222025493A3954
:101EC000C8730E2123483A38017435214174192012
:101ED00020493A39887421211E483A38C174532167
:101EE000017528201B493A3908760020C876002160
:101EF00018483A38017741775A2016493A39887795
:101F00004120C877002081F8200081F8210081F865
:101F10002200322081F82300002081F824000024D0
:101F200006E000210B48103820F81410601CC4B2E1
:101F3000062CF6DB002007493A39C8840021054801
:101F40003A380185002003493A3981F8360004F017
:101F50004DFA10BDCE04002000B5002015490861DF
:101F6000C8601420486100208861C8610846006884
:101F700040F001000860084640680F4908400D49DC
:101F80004860084600680D4908400A49086008464C
:101F9000006820F4802008600846406820F4FE00B5
:101FA00048600020886000214FF0006000F008F8D1
:101FB00000BD0000001002400000FFF8FFFFF6FE29
:101FC000024A0A400243024B1A60704780FFFF1F1B
:101FD00008ED00E070B5544800685449096888422B
:101FE00001D2002070BD50480068514908444F4953
:101FF0000860FFF71FFA002424E04E4931F914006D
:10200000FEF702FB06464C4850F824103046FEF717
:1020100003F90546FEF71FFB01B2464820F81410ED
:1020200046484078C0F3400050B9424830F8141098
:10203000434830F81400081A01B23E4820F8141042
:10204000601CC4B2032CD8DB3C484078C0F340008D
:10205000002866D03B48006818B934480068394900
:1020600008603248006837490968401A3649884292
:102070004BD236480068C0433549C1F8800100247E
:1020800040E0304800682949096888420BD1294856
:1020900030F814002F4921F81400264830F81400B5
:1020A0002D4921F81400234830F91400294931F949
:1020B0001410884208DA1F4830F81400254921F826
:1020C00014000120254908701A4830F914002249EB
:1020D00031F91410884208DD164830F814001E4902
:1020E00021F8140001201D4908701A4830F9140025
:1020F000194931F9141008444110114820F81410FE
:10210000601CC4B2032CBCDB0BE00C48407820F010
:1021100002000A49487000200A490860012004F0C2
:102120008BF901205EE7000088000020F401002008
:10213000A086010008040020E0010020CA00002061
:102140008A040020F801002080C3C9010001214257
:1021500000002142FC0100200202002016050020A0
:1021600010B5642002F09EFB11220A210C2003F01E
:102170001BF9642002F096FB10BD000008E001206E
:1021800004490880091D0880091D0880091D088070
:10219000F5E7000034040040012004490880091DCF
:1021A0000880091D0880091D08807047340400401C
:1021B0007047000070B5002100230F22C47804B3DB
:1021C000154C246804F4E064C4F5E064210AC1F10C
:1021D0000403CA40447804FA03F18478144021438C
:1021E00009010E4C0678A155047804F01F0501245E
:1021F000AC4005786D11AD0005F1E025C5F8004152
:1022000009E0047804F01F050124AC40044D067871
:10221000761145F8264070BD0CED00E000E400E0CA
:1022200080E100E002490143024A1160704700006A
:102230000000FA050CED00E0024A0A400243024B9E
:102240001A60704780FFFF1F08ED00E070B502269E
:102250004A480068447849480068007800F07F00E8
:1022600000284AD1092C03D100F0DEFE064665E0C5
:10227000052C14D141480068C0787F280BDC3F480A
:102280000068807838B93D480068808818B93B48B4
:102290000068807A08B108256BE000264EE0032C28
:1022A00014D136480068C07801280DD13348006841
:1022B000808848B931480068407A00F0200018B1A1
:1022C00000F0D6FE064639E0022637E0012C35D173
:1022D0002A480068C07801280DD128480068808805
:1022E00048B926480068407A00F0200018B100F094
:1022F00037FD064622E0022620E0204800680078EC
:1023000000F07F00012805D10B2C17D100F024FF2D
:10231000064613E019480068007800F07F000228A4
:102320000BD1012C03D100F01BFD064606E0032C67
:1023300004D100F0B1FE064600E002264EB1E0B244
:102340000F4A1268516988470646032E01D10925B4
:102350000FE00EB108250CE00625002109480068B1
:1023600080B2801C084A42F81010302007490880CB
:1023700000BF024909680D7270BD0000A80300206B
:10238000AC030020505C004000600040A20300202D
:1023900010B511480068047A032C01D0052C05D132
:1023A000FEF794FE0C480068047A0EE0072C05D175
:1023B0000A490968C8688047082406E0022C01D051
:1023C000042C01D1082400E00824034909680C7298
:1023D00000F01CF810BD0000A8030020AC03002092
:1023E000F0B5561C7510074E06EB41042B4605E070
:1023F00034F8047B20F8017B401C5B1E002BF7D1D6
:10240000F0BD0000006000407047704700B50D4807
:1024100090F82C10002000F0BDFA0B480068007AFC
:10242000082805D140020949088010200849088081
:1024300005480068007A092801D1012000BD00206C
:10244000FCE70000DC020020A8030020A00300201D
:10245000A203002010B5012001F094FB01240B48D9
:10246000046000200A49088008460088074908607F
:102470000020091D08604FF4E05005490880084617
:10248000008802490860002010BD0000405C004048
:10249000B203002029B1064AD2690243044BDA6133
:1024A00004E0034AD2698243014BDA6170470000BD
:1024B0000010024029B1064A12690243044B1A6116
:1024C00004E0034A12698243014B1A61704700001D
:1024D0000010024029B1064A92690243044B9A61F6
:1024E00004E0034A92698243014B9A6170470000FD
:1024F0000010024029B1064AD2680243044BDA6058
:1025000004E0034AD2688243014BDA60704700005E
:102510000010024030B500210022002400232D4D80
:102520006D6805F00C0121B1042905D0082923D1DB
:1025300005E0294D056022E0274D05601FE0254D8F
:102540006D6805F47012234D6D6805F48034022522
:1025500005EB92421CB9214D554305600BE01D4D22
:102560006D6805F400351DB11C4D5543056002E052
:10257000194D5543056002E0174D056000BF00BFCF
:10258000144D6D6805F0F0010909154D6B5C056887
:10259000DD4045600F4D6D6805F4E061090A104D9E
:1025A0006B5C4568DD4085600A4D6D6805F46051DF
:1025B000C90A0B4D6B5C4568DD40C560054D6D6813
:1025C00005F44041890B074D6B5CC568B5FBF3F51D
:1025D000056130BD0010024000127A0000093D0084
:1025E0009C020020AC0200207047000001490860F6
:1025F00070470000D80042427047704770477047EC
:10260000704770472DE9F0410546884600260027AF
:1026100000244446104602EBD0714910A2EB410160
:1026200029B102EBD0714910491C8FB204E0104669
:1026300002EBD071C1F34F0705F00100002826D04E
:102640006D1E284600F051F8064630122070641CBA
:10265000501E82B2781E87B2AD1C002314E02846BB
:1026600000F043F806462670641C501E82B20AB978
:10267000BDE8F08130122070641C501E82B202B995
:10268000F6E7AD1C581C83B2BB42E8DB2BE01046DA
:1026900002EBD0714910A2EB410161B9002307E0C0
:1026A000284600F022F828F81300AD1C581C83B20D
:1026B000BB42F5DB17E0002313E0284600F015F8D5
:1026C00006462670641C501E82B202B9D0E7301252
:1026D0002070641C501E82B202B9C9E7AD1C581CA0
:1026E00083B2BB42E9DB00BFC2E7014608887047FE
:1026F0002DE9F04FADF2044D80468A46144620463F
:1027000004EBD0714910A4EB410119B104EBD07175
:1027100049104C1CB8F1006F02D33448804503D3F4
:102720000DF2044DBDE8F08FFEF772FFA8F1006BCB
:102730004FEA9B26CBF34809C9F50075AC4200DC93
:10274000A5B24CE04FF0006101EB86208A1401A98C
:10275000FFF758FF00270BE009EB070001A931F84C
:1027600010004FF6FF71884200D003E0781C87B25A
:10277000AF42F1DB00BFAF421BDA4FF0006101EB6B
:102780008620FEF7D9FE002708E03AF8170007EB8D
:10279000090101AA22F81100781C87B2AF42F4DBCC
:1027A0004FF0006101EB86208A1401A900F020F8A7
:1027B00004E02A465146404600F01AF8AC4200D1E7
:1027C0000EE0761C4FF000090AEB450AA844641B92
:1027D000B4F5007F02DD4FF4007500E0A5B2B1E76B
:1027E00000BFFEF7EBFE00BF9AE700000000010803
:1027F0002DE9F04105460E461746002407E036F85D
:1028000014102846FEF7E4FEAD1C601C84B2BC42E6
:10281000F5DBBDE8F08170470146104830F8110043
:102820000F4B33F81130C01A002807DD0B4830F881
:1028300011000B4B33F81130C01A06E0084830F88D
:102840001100064B33F81130C01AC2B2D01702EB98
:1028500010600012A2EB0020C0B2704710020020EE
:102860000802002010B501460D4830F811200D482F
:1028700000EB0120835C00200A4C04EB0124A054EF
:10288000094830F81100904208D0501C80B202462E
:10289000FF2800DD0022024820F81120D8B210BD28
:1028A00010020020C4060020080200200A46074B40
:1028B000195C4B1CDBB21946802B00DB0021044B5A
:1028C00003EBC0135A54014B1954704718020020EF
:1028D000C40A002001460D48405C0D4B5B5CC01AE9
:1028E000002805DD0948405C094B5B5CC01A04E028
:1028F0000748405C054B5B5CC01AC2B2D01702EBC4
:102900005060C011A2EBC010C0B270471C02002082
:10291000180200204FF6F8710140014A116070471B
:10292000505C004030B501460E4B1A78002011E093
:1029300003060D4C04EB9353D3F8003C48F68F7418
:102940002340C4B223430406074D05EB9454C4F856
:10295000003C401C9042EBD341F08003034C2360C9
:1029600030BD0000D8020020005000404C5C004008
:1029700010B54A105300054A126892B202EBC00229
:10298000121D034C44F8123010BD0000505C004092
:102990000060004010B502460F48006880B200EBAE
:1029A000C200801D0D4C04EB40033E290BDD481195
:1029B00001F01F040CB9441EA0B24FF4004444EAD5
:1029C00080241C6007E0481001F001040CB1441C95
:1029D000A0B284021C6010BD505C0040006000404A
:1029E00010B50C4C04EB8003D3F8003C4BF68F740D
:1029F00003EA040201F480530BB182F4805201F423
:102A000000530BB182F40052024C04EB8003C3F874
:102A1000002C10BD00500040094B03EB8002D2F89F
:102A2000002C4BF68F7302EA030181F4805181F48C
:102A30000051034B03EB8002C2F8001C70470000FA
:102A40000050004010B54A105200044B1B689BB266
:102A500003EBC003024C44F8132010BD505C00404F
:102A600000600040044A126892B202EBC002921C5D
:102A7000024B43F812107047505C00400060004069
:102A800010B50C4C04EB8003D3F8003C48F6BF743F
:102A900003EA040201F010030BB182F0100201F00E
:102AA00020030BB182F02002024C04EB8003C3F838
:102AB000002C10BD00500040094B03EB8002D2F8FF
:102AC000002C48F6BF7302EA030181F0100181F087
:102AD0002001034B03EB8002C2F8001C704700008A
:102AE0000050004010B5074B03EB8002D2F8002CD9
:102AF00048F68F131A400A43024C04EB8003C3F8D4
:102B0000002C10BD0050004010B500F001F810BDC1
:102B10000CB50020019000903348006840F48030EC
:102B20003149086000BF3048006800F40030009070
:102B30000198401C0190009818B90198B0F5A06F59
:102B4000F1D12948006800F4003010B10120009054
:102B500001E0002000900098012843D1234800683C
:102B600040F01000214908600846006820F003008A
:102B700008600846006840F0020008601A48406893
:102B8000194948600846406848600846406840F473
:102B9000806048600846406820F47C104860084621
:102BA000406840F4E81048600846006840F08070D3
:102BB000086000BF0C48006800F000700028F9D0E1
:102BC0000948406820F0030007494860084640680B
:102BD00040F00200486000BF0348406800F00C006D
:102BE0000828F9D10CBD000000100240002002406E
:102BF00010B50020FFF7FAFC0121C805FFF74AFCD9
:102C000010BD000008B52848006880B2001D2749A3
:102C100031F8100080B201EB4000009024480068B9
:102C2000007A09282FD00098007821490968087097
:102C30000098401C0090009800781D490968487071
:102C40000098401C00900098801C0090009931F87A
:102C5000020B0091FDF73AFF15490968488000987A
:102C6000801C0090009931F8020B0091FDF72EFFB7
:102C70000F49096888800098801C0090009800889F
:102C80000B490968C8800120094909680872084889
:102C90000068C08810B9FFF7D9FA01E0FEF774FAAE
:102CA000FFF7B4FB08BD0000505C0040006000402E
:102CB000A803002070B506460C461546FEF788FFAF
:102CC0003046FEF74DFFFEF7F1FF18B9FEF7C6FFDD
:102CD000002070BD2046FEF743FFFEF7E7FF18B95E
:102CE000FEF7BCFF0020F4E72846FEF739FFFEF7A9
:102CF000DDFF18B9FEF7B2FF0020EAE7FEF7AEFFEE
:102D00000120E6E710B503F025F8104908600846F1
:102D100000680F490968401A44F26821884208D9BE
:102D200003F018F80A49086003F014F8094908602C
:102D300000E010BD01200849086003F00BF80020F6
:102D40000649C1F88C0100BFF3E7000074010020C0
:102D5000700100203C0000208C8121420080214233
:102D60002DE9F04750480068007800F07F08B8F17E
:102D7000000F0AD14C480068407A00F0DF004A4951
:102D8000096848720020BDE8F087B8F1020F7DD1D4
:102D900045480068408818B943480068007908B180
:102DA0000220F0E7DFF804913F480068477927F0F8
:102DB00080052C463C480068407900F0800038B11E
:102DC0003B4901EB8400D0F8000C00F0300606E02F
:102DD000374901EB8400D0F8000C00F4405699F814
:102DE0000000A84204D91EB12F480068807A08B9B3
:102DF0000220C8E707F0800080B12D4901EB840074
:102E0000D0F8000C00F03000102843D1E0B2FEF7FB
:102E1000C7F8E0B23021FFF733FE3BE0244901EB75
:102E20008400D0F8000C00F44050B0F5805F31D140
:102E3000C4B9204A92F82C10E0B2FFF7ABFD1C4A4F
:102E400002EB8401D1F8001C4BF68F7201EA0200FC
:102E500080F4805080F40050154A02EB8401C1F8E0
:102E6000000C17E0E0B2FEF781F8114A02EB840192
:102E7000D1F8001C4BF68F7201EA020080F48050FA
:102E800080F400500A4A02EB840100E008E0C1F837
:102E9000000C00BF0849096848698047002072E7B4
:102EA00000BF02206FE70000A8030020D802002026
:102EB00000500040DC020020B403002010B504469E
:102EC0002CB90120064909680882002010BD054977
:102ED000096808688047024800680A30F6E7000081
:102EE000A8030020B403002010B50246064800687D
:102EF000438A32B98888C01A034C24682082002093
:102F000010BD08681844FBE7A803002010B504466C
:102F10002CB90120064909680882002010BD054926
:102F2000096888688047024800680C30F6E70000AE
:102F3000A8030020B403002010B504462CB90220D9
:102F4000354909680882002010BD002033490880F7
:102F500031480068007800F07F00E0B92E49096828
:102F6000487A00F0200129B12C49097841F002018A
:102F70002A4A117000F0400131B12849097801F066
:102F8000FE01264A117005E02449097841F001014B
:102F9000224A11703AE020480068007800F07F0073
:102FA000012801D11D48CFE71B480068007800F0D8
:102FB0007F00022828D1184A1268517901F00F00C9
:102FC00001F080027AB1164B03EB8002D2F8002C9C
:102FD00002F03002102A16D1104A127842F0010293
:102FE0000E4B1A700FE00E4B03EB8002D2F8002C50
:102FF00002F44052B2F5805F05D1084A127842F0DF
:103000000102064B1A7001E000209DE7054909689E
:1030100008698047014897E7A8030020D2030020F1
:1030200000500040B403002010B50E480068C0787E
:103030000D494978884213DC0A480068807878B9DD
:1030400008480068808858B906480068C078054973
:10305000096888720549096848688047002010BDE2
:103060000220FCE7A8030020D8020020B4030020BF
:1030700010B507480068407A40F02000044909680C
:10308000487204490968C8698047002010BD0000E3
:10309000A8030020B40300202DE9F0412A4800686D
:1030A000467926F080073C4627480068407900F0C2
:1030B000800038B1254901EB8400D0F8000C00F005
:1030C000300506E0214901EB8400D0F8000C00F443
:1030D00040551F480078A04208D91B480068408826
:1030E00020B91DB118480068807A10B90220BDE8E7
:1030F000F08106F0800080B1144A02EB8401D1F81F
:10310000001C48F6BF7201EA020080F010000F4A6E
:1031100002EB8401C1F8000C10E00C4A02EB8401C0
:10312000D1F8001C4BF68F7201EA020080F4805047
:10313000064A02EB8401C1F8000C00BF054909688A
:10314000886980470020D2E7A80300200050004093
:10315000D8020020B403002010B5174B1B68D978A3
:10316000154B1B685879154B1B689A6990470446A4
:1031700011480068807AE8B13CB90F4800680079CE
:1031800018B90D480068807808B1022010BD8CB9CC
:103190000B490968C86880470748006840790649B4
:1031A0000968C87204480068C07803490968087350
:1031B0000020EBE70220E9E7A8030020AC03002091
:1031C000B403002030B504460025FEF7C5FE1F48B5
:1031D000006840F480301D49086000BF1B4800684B
:1031E000400C0028FAD04FF4806018494860A01EB7
:1031F000C4B20846406840EA8440486008464068D7
:1032000040F4803048601248006840F032001049B5
:1032100008600E48006840F080700C49086000BFEC
:103220000A480068400E0028FAD00848406840F07C
:1032300002000649486005E004484068C0F387057D
:1032400005F00305022DF7D130BD0000001002404B
:103250000020024010B500F001F810BD0C480068D5
:10326000401C0B4908600B48006828B109480068F9
:10327000401E084908600AE06420064908600648C4
:10328000006820B104480068401E03490860704788
:10329000680200205C0200205402002010B5134890
:1032A000006840F001001149086008464068104974
:1032B00008400E494860084600680E4908400B491E
:1032C00008600846006820F48020086008464068CE
:1032D00020F4FE0048604FF41F008860FFF714FCE4
:1032E0004FF000600449086010BD0000001002406B
:1032F0000000FFF8FFFFF6FE08ED00E070477047A2
:1033000010B54C48007800F0800000284CD1012115
:10331000494800F000FAD0B14648007800F040007B
:10332000A8B14448007800F03F003F280AD1414846
:10333000007840F080003F4908704FF6FF703F4929
:10334000088004E03B480078401C3A49087002219C
:10335000394800F0E0F938B33648007800F0400012
:1033600078B13448007840F0800032490870324823
:1033700000F0CEF93149088000212F4800F0DCF937
:1033800012E000202B4908702C49088000212A48AF
:1033900000F0E4F92748007840F040002549087023
:1033A0000221254800F0C8F92248007800F080008A
:1033B000D0B32348007801280CD120480188214A45
:1033C00021480078401C22F810101F480078401C4B
:1033D0001D49087017480078042801DA012000E030
:1033E000002000F0010028B91448008840F6B831E8
:1033F000884204DD12480078401C114908701048CA
:10340000007802280DD100200E490F4A127821F8C9
:1034100012000B49087001200A49088000200A495F
:1034200008700020034908700321034800F06DF97B
:1034300010BD00004C020020002C01405002002072
:103440004D0200200C0D00204E02002070477047F6
:103450007047704770B505460C465348C06940F048
:1034600002005149C8610846806940F00400886143
:103470000846806940F0080088614C48006820F0E8
:103480007F404A4908600846006840F03B400860B9
:103490004748006820F0FF0045490860084600687A
:1034A00040F0BB00086043480580001F048041488D
:1034B0001438008840F060003E49143908800846FE
:1034C000008840F0080008803A480C38008840F036
:1034D000010038490C39088036481438008840F417
:1034E000C0403449143908800846008840F4006020
:1034F000088030480C38008840F010002D490C3905
:103500000880081F008840F06000091F08800846F6
:10351000008840F008000880081D008840F4807092
:10352000091D0880081F008840F4C040091F08805A
:103530000846008840F400600880081D008840F4B8
:103540008050091D08804FF47A701A4908310880AC
:10355000091D0880091D0880091D088015482C38A0
:10356000008840F0800013492C3908800846008804
:1035700040F0010008804FF47A710E482C3800F0BA
:10358000E4F84FF47A710B482C3800F0E0F84FF46F
:103590007A7108482C3800F0DCF84FF47A7105484D
:1035A0002C3800F0D8F870BD00100240000801402F
:1035B000000C01402C0400407047000070B5054627
:1035C0000C464B48C06940F004004949C8610846B0
:1035D000806940F0080088614648006820F07F401C
:1035E000444908600846006840F03B400860081DF8
:1035F000006820F0FF00091D08600846006840F0E0
:10360000BB0008603C480580001F04803A4814381D
:10361000008840F060003849143908800846008866
:1036200040F00800088034480C38008840F0010061
:1036300031490C39088030481438008840F4C040C3
:103640002D49143908800846008840F4006008803D
:1036500029480C38008840F0100027490C390880B0
:10366000081F008840F06000091F08800846008895
:1036700040F008000880081D008840F48070091D93
:103680000880081F008840F4C040091F08800846D1
:10369000008840F400600880081D008840F48050D5
:1036A000091D088014482C38008840F08000124919
:1036B0002C3908800846008840F00100088040F25C
:1036C000DC510D482C3800F040F840F2DC510A483B
:1036D0002C3800F03CF840F2DC5107482C3800F060
:1036E00038F840F2DC5104482C3800F034F870BD52
:1036F00000100240000C01402C0800407047704749
:1037000070477047704770477047CA4302827047DE
:103710000146888E704730B5024600200023002401
:10372000158A05EA0103958905EA010413B10CB174
:10373000012000E0002030BD0A460021018C4FF638
:10374000FD731940114301847047818670470187DA
:10375000704781877047A0F8401070478184704798
:103760007047704710B50748008800F0200038B156
:103770000448001D0088C4B20121204602F004FE66
:1037800010BD00000038014010B586B0044601218C
:103790000420FEF79FFE01214804FEF77BFE042073
:1037A000ADF8140003208DF8160018208DF81700CE
:1037B00005A91C48FDF79CFF0820ADF81400042063
:1037C0008DF8170005A91748FDF792FF26208DF800
:1037D000000003208DF801008DF8020001208DF813
:1037E00003006846FEF7E6FC01940020ADF80800EF
:1037F000ADF80A00ADF80C00ADF810000C20ADF8E3
:103800000E0001A9084800F047F9012240F22551B5
:10381000054800F01BF90121034800F0BDF806B08F
:1038200010BD0000000801400044004010B50748EA
:10383000008800F0200038B10448001D0088C4B2A0
:103840000221204602F0A0FD10BD0000004400400F
:1038500010B586B0044601210820FEF73BFE012189
:103860008804FEF717FE234800F0A2F84FF48060AA
:10387000ADF8140003208DF8160018208DF81700FD
:1038800005A91D48FDF734FF4FF40060ADF81400A2
:1038900004208DF8170005A91748FDF729FF2720F8
:1038A0008DF8000003208DF801008DF80200012042
:1038B0008DF803006846FEF77DFC01940020ADF80A
:1038C0000800ADF80A00ADF80C00ADF810000C20AF
:1038D000ADF80E0001A9074800F0DEF8012240F221
:1038E0002551044800F0B2F80121024800F054F8D4
:1038F00006B010BD00480040000C01401E49098878
:1039000001F02001002936D01B49091D0988C8B2E1
:103910001A490978491C194A505411460978491C1A
:10392000117017490978012913D11649164A1268EE
:1039300021F8120014490968491C134A1160114604
:103940000968162905D100210D4A117001210F4A7D
:1039500011700F2809D10E49097831B90949088039
:103960000121074A1170084A116009490978094A7A
:10397000117007490870704700480040600D002032
:10398000B8020020240D0020B4020020B102002063
:10399000B9020020BA02002021B1828942F400520B
:1039A000828104E082894DF6FF731A40828170475C
:1039B00010B504462048844209D101218803FEF74E
:1039C00099FD00214FF48040FEF794FD32E01B4842
:1039D000844209D101214804FEF76CFD00214FF417
:1039E0000030FEF767FD25E01548844209D101212A
:1039F0008804FEF75FFD00214FF48020FEF75AFD9A
:103A000018E01048844209D10121C804FEF752FD94
:103A100000214FF40020FEF74DFD0BE00A488442E0
:103A200008D101210805FEF745FD00214FF4801063
:103A3000FEF740FD10BD000000380140004400408A
:103A400000480040004C004000500040F0B50346E4
:103A5000002400260025002040F66A17B94200D154
:103A600000BF1846C1F3421401F01F06012707FAF0
:103A700006F5012C01D10C3004E0022C01D11030EC
:103A800000E014301AB107682F43076002E00768AE
:103A9000AF430760F0BD00002DE9F04786B0054652
:103AA0000E460024A24600BFA1460027B08900B1FF
:103AB00000BF2F462C8A4CF6FF700440F088044368
:103AC0002C82AC894EF6F3100440B088318908434B
:103AD000718908430443AC81AC8A4FF6FF4004402F
:103AE000B0890443AC8201A8FEF714FD1F48874249
:103AF00002D1DDF810A001E0DDF80CA0A88900F4E7
:103B0000004040B10AEBCA0000EB0A1031684900DE
:103B1000B0FBF1F807E00AEBCA0000EB0A103168CD
:103B20008900B0FBF1F86420B8FBF0F00401200933
:103B3000642101FB1089A88900F4004040B13220C3
:103B400000EBC900B0FBF1F000F00700044308E00F
:103B5000322000EB09106421B0FBF1F000F00F00FF
:103B600004432C8106B0BDE8F08700000038014016
:103B7000704710B5FFF73CF800F04AF800F016F86F
:103B800010BD000010B504462CB14FF4805105481B
:103B9000FDF73BFE04E04FF480510248FDF733FE91
:103BA00010BD0000000801407047000008B5012169
:103BB0000420FEF78FFC4FF48050ADF80000032086
:103BC0008DF8020010208DF8030069460948FDF7C2
:103BD0008FFD0948094908600220096808720848F1
:103BE00008490860084809490860064909680868E2
:103BF000804708BD000801407C0E0020A80300207B
:103C0000DC020020AC0300200C030020B4030020E1
:103C100008B500214FF00060FEF70EFB4FF4C060C6
:103C2000FEF700FB14208DF8000000208DF8010045
:103C30008DF8020001208DF803006846FEF7BAFAFD
:103C400025208DF8000001208DF801006846FEF760
:103C5000B1FA08BD10B51748006817490880084632
:103C6000008800F4806015490988084030B14FF69B
:103C7000FF30104908601249486880470E480088A4
:103C800000F400700D490988084040B14FF6FF501C
:103C9000084908600B480078401C0A49087006482B
:103CA000008800F4004005490988084008B1FCF785
:103CB00015FF10BD445C004062030020B2030020E9
:103CC000DC0200206403002070B505460C46264641
:103CD00006E02919891B11F8010C002102F054FBA0
:103CE000301EA6F10101CEB2F3D170BD30B505464C
:103CF0000C46202C08DDA4F12000C4B22146284641
:103D0000FFF7F4FF2544202422464FF48071284613
:103D100000F0B2F821460220FEF7A4FE0220FEF7D2
:103D2000CBFE00BF0220FDF717FE2028FAD130BDE0
:103D300070B5044634B1012C1DD0022C3CD0032CAC
:103D40007BD159E010E03E480078401CC0B23C49AD
:103D50000870802801DB0020087039490978394A49
:103D600088180121FFF7C2FF3748007834490978E5
:103D70008842E8D161E018E031484078401CC0B288
:103D80002F494870802801DB0020487000BF2F4871
:103D9000008800F040000028F9D0294841782948DF
:103DA0008030455C2948001D05802748407824491B
:103DB00049788842E0D140E017E021488078401CF3
:103DC000C0B21F498870802801DB0020887000BFC6
:103DD0001F48008800F040000028F9D0184881787A
:103DE0001C48405C1A49091D08801748807814490E
:103DF00089788842E1D120E018E01148C078401C61
:103E0000C0B20F49C870802801DB0020C87000BF15
:103E10001148008800F040000028F9D00848C17817
:103E20000C488030405C0C49091D08800648C07869
:103E30000349C9788842E0D100BF00BF70BD0000CF
:103E40001C020020C40A0020180200200038014093
:103E500000440040C40B00200048004008E001205E
:103E600004490880091D0880091D0880091D088073
:103E7000F5E7000034040040F0B5144604F1010CED
:103E80004FEA6C07DFF824C00CEB41033D460AE023
:103E90000678401C90F800C046EA0C2223F8022B5A
:103EA0009B1C401C6D1E002DF2D1F0BD0060004037
:103EB00010B502461C48006841881B48006883888A
:103EC00000BFC8B2040204EB2124A1B200BF00BFAE
:103ED000D8B2040204EB2324A3B200BF6AB913488A
:103EE00000785F2803D011480078952805D102207A
:103EF0000D4C24682082002010BD0C4800785F28FB
:103F000002D095280ED101E00948F5E742F2185099
:103F1000814201D10748EFE740F20670814201D1AA
:103F20000548E9E70020E7E7A80300206003002038
:103F3000D5030020D7030020C802002070B5044636
:103F40000025212C08D114480068007800F07F007B
:103F5000212812D1114D10E0202C0BD10E48006801
:103F6000007800F07F00212800D10D4D20200D4960
:103F7000087002E00C4804700C4D0DB9022070BDB1
:103F800005480068856100210348006841820020DF
:103F9000A8470020F3E70000A8030020D93F00084D
:103FA00039420008CC02002060030020B13E000826
:103FB00010B5044602492046FEF796FF10BD0000EA
:103FC0003803002010B5044602492046FEF78CFF56
:103FD00010BD000030030020014629B90820034A23
:103FE00012681082002070470148FCE7A8030020F7
:103FF000D002002030B5054606480068C478042C7D
:1040000001DD002030BD044800EBC4012846FEF766
:104010006BFFF7E7A80300204003002002460029B9
:1040200001DD02207047012A01DD0220FAE70020AD
:10403000F8E7000010B502463A480068007800F042
:104040007F00212807D1022A01D1002010BD222A99
:1040500066D10020FAE73348006843883148006899
:10406000818800BFD8B2040204EB2324A3B200BFAE
:1040700000BFC8B2040204EB2124A1B200BF9A2AF7
:1040800005D0A12A02D0A42A47D141E045E0A3F6F9
:104090002C7000B3A0F2E630C0BB23480078224C5D
:1040A000206001F47F40246820431F4C206001F011
:1040B00003001E4C20701C480088C04380B2247846
:1040C000C4F1030404EB4404A040194CB4FBF0F029
:1040D000184C20801AE01448008800F47F40124CED
:1040E0002060204600680843206020460088C043C6
:1040F00080B20E4C2478C4F1030404EB4404A040C5
:104100000B4CB4FBF0F00B4C208000BF00BF04E070
:104110004EF69F60084C206000BF00BF002095E76E
:10412000022093E7A8030020DC030020E003002026
:1041300000F0595BBC020020C802002000B500203E
:104140003049096888723048C0792E490968487238
:1041500000202C490968C872FEF7DCFB4FF400719F
:104160000020FEF7BFFC10210020FEF789FC402153
:104170000020FEF7FDFB80210020FEF763FC0020FD
:10418000FCF728FF214890F82C100020FEF702FCD5
:104190000020FEF741FC4FF4C0610120FEF7A2FCB5
:1041A000C0210120FEF74EFC20210120FEF768FC13
:1041B00000210120FEF714FC00210220FEF792FCF2
:1041C0004FF480710220FEF73DFC20210220FEF713
:1041D00057FC4FF440510220FEF702FC0021022060
:1041E000FEF780FC4FF4A0710220FEF7C1FB2021F6
:1041F0000220FEF7CFFB0020FEF794FB01200449CC
:10420000086000BDA803002089650008DC020020CA
:10421000C00200200348817A11B10521024A1160D1
:10422000704700007C0E0020C002002004200149DD
:1042300008607047C0020020014629B90820034ADF
:1042400012681082002070470148FCE7A803002094
:10425000D002002003480078202802D10020014924
:1042600008707047CC0200207047000010B5FDF7C1
:104270007FFB00200A4909688872FEF7EBF80020EE
:10428000084908604FF4064007490880084600883E
:104290000449091F086000200449086010BD00009F
:1042A000A8030020445C0040B2030020C0020020AC
:1042B000704702E008C8121F08C1002AFAD17047EF
:1042C0007047002001E001C1121F002AFBD1704796
:1042D0002DE9F04F89B005460E462846FCF794F9C3
:1042E0008146002D01DD284600E06842002E01DDF8
:1042F000314600E07142884201DA012000E00020EE
:104300008246BAF1000F09D03046FCF77DF9074626
:1043100039464846FBF7B2FF814607E03046FCF7D6
:1043200073F907464946FBF7A9FF814649464846C7
:10433000FBF772FF8346FCF7DFF91B4A1B4BCDE905
:104340000001FBF7D9FFCDE902014846FCF7D4F99B
:104350000746DDE90223FCF7E8F8154A154BCDE9DD
:104360000401FCF770F8CDE90601FCF78DF904B201
:10437000BAF1000F0BD0002E11DA002D03DAA4F5EC
:10438000E16004B20BE004F5E16004B207E0C4F5BB
:10439000617004B2002D02DAA4F5E16004B2204697
:1043A00009B0BDE8F08F0000A779C7293A920C4008
:1043B0001F85EB51B8F99F402DE9F0414FF080087F
:1043C000A048B0F9060040F2DC5188421ADD9D4851
:1043D000B0F90600B0F5FA6F0DDA9B4890F82200AC
:1043E0009849B1F90610A1F2DC514843A8EB6020CE
:1043F00000F0FF0806E0944890F82200A8EB0000C7
:1044000000F0FF0800247EE08E4830F91400A0F28E
:10441000DC50002805DD8B4830F91400A0F2DC5098
:1044200005E0884830F9140040F2DC51081AB0F574
:10443000FA7F13DA834830F91400A0F2DC50002828
:1044400005DD804830F91400A0F2DC5008E07D481A
:1044500030F9140040F2DC51081A01E04FF4FA7010
:1044600086B2082E03DDA6F1080086B200E0002621
:10447000022C33D0F5117549681C31F9100031F95F
:104480001510401AA6EBC5114843704931F81510B4
:1044900001EBE01000B26E4921F814006A4890F870
:1044A000200070438021A1EB6020C7B207FB08F019
:1044B000C0F3C71704EB44006349085C7843C0F3BA
:1044C000C7106449085504EB44005F4908448078EC
:1044D0007843C0F3C7106049085503E030B25C4927
:1044E00021F81400574830F9140040F2DC5188429A
:1044F00007DA574830F81400404200B2544921F816
:104500001400601CC4B2032CFFF67EAF4D48B0F916
:10451000060040F24C41884201DA08460BE0494867
:10452000B0F90600B0F5FA6F02DD4FF4FA6002E070
:104530004448B0F9060086B2A6F24C40C0EB4021D8
:1045400001EBC0204FF46171B0FBF1F086B2F117BE
:1045500006EB11610D12414A691C32F8111032F854
:104560001520891AA6EB052201FB02F0C11700EB0A
:1045700011613A4A32F8152002EB212109B2344A7E
:10458000D180374801780078401C354A10700320EC
:1045900091FBF0F200FB121020B1012803D0022899
:1045A00003D101E002E001E000E000BF00BF2D48C0
:1045B0000088002800DD03E02B480088002806DD85
:1045C0002A480068C0432A49C1F8800111E02948FF
:1045D0000078C0F3800018B101212748FDF715F9D4
:1045E00024480078C0F3400018B101212248FDF7AB
:1045F0000AF9224800682249096888421ED91D48E4
:10460000407800F0010090B91A48007820F00400CA
:104610001849087015480068C0431549C1F8800161
:1046200016480068174908441549086006E0114813
:10463000007820F00400001D0E49087001F090FD84
:10464000BDE8F0812A0400209404002052040020D8
:10465000D4000020F4000020F60000205C040020BC
:104660004D01002090000020940000200001214214
:1046700000002142CA0000200008014088000020FC
:1046800078010020A08601002DE9F04104460D4686
:1046900016464FF0000815E000270AE00B480068B6
:1046A000C0430B49C1F88001284600F0FBF8781C94
:1046B000C7B2A742F2DB3C2000F0F4F808F1010099
:1046C00000F0FF08B045E7DBBDE8F08100012142C2
:1046D0000000214210B50246552003E012F8014BBC
:1046E0002318D8B24B1EDBB2191EF7D110BD000043
:1046F00070B50026FCF7A8F900F0BAFBFDF75CF9ED
:10470000002407E0214830F81400214921F8140062
:10471000601CC4B2032CF5DB01F01CFB86B2FFF772
:104720004BFE002500E0012501F014FB801B00B2C8
:1047300040F28A218842F6DBFDF73EF9002422E0B0
:10474000124830F81400124931F81410084400B22D
:104750000F4921F81400084630F914000D4931F9C9
:1047600014100844032190FBF1F001B207480C3803
:1047700020F81410064830F914004010054921F8BB
:104780001400601CC4B2032CDADB70BD0E040020E0
:104790001A000020140000202DE9F0414FF001081C
:1047A00039480078401C38490870084600780328CA
:1047B00001D1002008703548007818B10020334935
:1047C000087001E0BDE8F081002458E0204601F0C7
:1047D00045FC0646B8F1000F36D0354600270AE002
:1047E00004EB44002A4901EB400030F8170028444C
:1047F00085B2781CC7B2032FF2DBA81CC11700EBEF
:104800009171C1F38F05234830F8140080B2C01EA7
:10481000A84204DDA81C00B21E4921F814001D485E
:1048200030F8140080B2C01CA84204DAA81E00B2FE
:10483000184921F8140004EB4400154901EB40002D
:104840001149097820F81160082C15DA124800780F
:10485000002811DD10480078401E0F4908700F48ED
:1048600030F91400B0F5617F07DD0C4830F8140012
:10487000084921F8140000E000BF601CC4B20C2CF1
:10488000A4DB00BF9EE7000044020020B10200202C
:10489000C40C00202A040020DC0000204204002078
:1048A000704700000349086000BF024909680029F9
:1048B000FBD1704754020020F0B506460C4617465F
:1048C000254605F0010000B16D1CBAB20249681816
:1048D0003146FDF797FEF0BD00B000082DE9F0412C
:1048E00006460C461746254605F0010000B16D1C32
:1048F000034968183A463146FDF7FAFEBDE8F081F3
:1049000000B000082DE9F041064600253046752E1E
:104910007BD01EDC6D2879D012DC672877D008DCCC
:1049200001283DD0642873D0652872D0662871D1E3
:104930000CE168286FD069286ED06C28F7D1E2E1CD
:104940006E38072866D2DFE800F0FDFCFBFA68F954
:10495000F800CF2848D012DCCB2835D008DC7728E7
:104960007AD0782879D0C8281FD0CA28DFD124E08F
:10497000CC2831D0CD2871D0CE28D8D14CE2EF2828
:104980006DD006DCD0286BD0D3286BD0D428CED104
:1049900052E1F0287CD0FA287BD0FE28C7D150E223
:1049A00000F054FC01F012FD55E21021FB4801F02B
:1049B000C8FB3220FA4908704DE201F079FA1E2155
:1049C000F84801F0BEFB46E201F072FA0C21F5480E
:1049D0002A3001F0B6FB3EE201F06AFA0721F14805
:1049E0001E3001F0AEFB36E201F062FA1621EE480D
:1049F00001F0A7FBEC48408800B2EA49A1F87A0030
:104A0000E948008A00B2088725E296E180E1D9E012
:104A10002FE03FE01AE237E164E1E4480088E4492E
:104A20000880E048B0F87A00488040F29E708880A4
:104A30004FF47A70C880002008814881C860D94846
:104A4000008F088200208874C87408754875162184
:104A5000D74801F05BFBFEE17DE1C4E0D0E134E149
:104A600091E1FFE701F024FA0221D24801F069FB4D
:104A7000F1E1E620D0494870032088700020C8701A
:104A8000CE4848600721CC48401C01F03FFBE2E1E2
:104A90000BE1D0E1CA480088CA490880CA480088AA
:104AA000488005208880C9480078C00908B145F0D1
:104AB0001005C6480078C0F3C00008B145F00205F3
:104AC000C2480078C0F3001008B145F00405BF48A3
:104AD0000078C0F3401008B145F00805BB480078E5
:104AE000C0F3400008B145F00105280CB549088124
:104AF000CD80B748007888720B2000F0ADFBB1493B
:104B0000098808B201F0C2FBAE49498808B201F039
:104B1000BDFBAC49898808B201F0B8FBA949C98836
:104B200008B201F0B3FBA749098908B201F0AEFB56
:104B3000A449887A01F0B4FB05E008E11EE100E138
:104B4000F6E0EFE0E9E001F041FC84E1122000F042
:104B500083FBA048B0F90050284601F097FB9D4820
:104B6000B0F90250284601F091FB9A48B0F9045080
:104B7000284601F08BFB9748B0F90650284601F013
:104B800085FB9448B0F90850284601F07FFB914816
:104B9000B0F90A50284601F079FB8E48B0F90C5064
:104BA000284601F073FB8B48B0F90E50284601F0FF
:104BB0006DFB8848B0F91050284601F067FB01F002
:104BC00005FC48E1102000F047FB002406E0824984
:104BD00031F9140001F05AFB601CC4B2082CF6DB5A
:104BE00001F0F4FB37E1382000F036FB00241EE032
:104BF0006C493A3131F9340001F048FB69493A31E6
:104C000001EBC401B1F9020001F040FB65493A3102
:104C100001EBC401B1F9040001F038FB61493A31FC
:104C200001EBC401887901F03BFB601CC4B2082C85
:104C3000DEDB01F0CBFB0EE101F03AF9002420E0CD
:104C400001F044F901B257483A3020F8341001F02D
:104C50003DF901B253483A3000EBC400418001F005
:104C600035F901B24F483A3000EBC400818001F0C1
:104C700039F941B24B483A3000EBC4008171601CF5
:104C8000C4B2082CDCDBE6E0102000F0E5FA0024DA
:104C900006E0524931F9140001F0F8FA601CC4B280
:104CA000082CF6DB01F092FBD5E0042000F0D4FAEA
:104CB00002213C48283001F036FA022139482630DA
:104CC00001F031FA01F082FBC5E001F0F1F80221B8
:104CD0003448283001F035FA02213248263001F0FC
:104CE00030FAB8E0102000F0B7FA002406E03C49A2
:104CF00031F9140001F0CAFA601CC4B2082CF6DBCA
:104D000001F064FBA7E00621364801F0FFF9A2E0BC
:104D10000621354801F0FAF99DE00721334801F0FA
:104D2000F5F998E007211F481E3001F0EFF992E0F5
:104D30001E211C4801F0EAF98DE02D4801F0C6FA69
:104D400089E00C2117482A3001F0E0F983E0294876
:104D500001F0BCFA7FE0062000F07EFA002408E0B3
:104D60002549081901F0AFF8074601F099FA601CCF
:104D7000C4B2062CF4DB01F029FB6CE008211F48CB
:104D800001F0C4F967E011480078C0F3400008B9A9
:104D9000FDF746F801F08CF85DE0000042040020C9
:104DA000DC000020940400204C060020CE000020EF
:104DB0006406002096000020C4010020100000704E
:104DC0008E000020A0060020CC000020CA00002099
:104DD00082040020FC030020E40000207204002074
:104DE0002A040020BC000020B40000201A04002087
:104DF0001C6500084C65000871650008A0010020D2
:104E000016480078C0F3400018B94FF400701449F8
:104E1000088001F04DF81EE010480078C0F3400013
:104E200030B90E48407820F00200801C0B494870D1
:104E300001F03EF80FE0002001F034FB01F038F8FB
:104E400009E00821074801F061F904E000F0FEF9EB
:104E500001F0BCFA00BF00BFBDE8F081CA0000202D
:104E600090000020C200002000BF00BF704700007B
:104E70002DE9F04F87B00026B34600F06BFFC14923
:104E800008600968C04A1268881AFBF7D7FBBF4A56
:104E9000BF4BCDE90201FBF7D6FA0746FBF73FFC13
:104EA0008146B8480068B849086000244AE0B9481B
:104EB00050F82400000900B2B74921F8140001F1AC
:104EC000180030F9140031F91410401AB14951F8A2
:104ED00024100844AF4941F82400AF4A32F91410B5
:104EE00032F9140000F0EBFF06444FF07E514846C3
:104EF000FBF732FC11D2A849123131F91400FBF74B
:104F000083FB80464946FBF787F90746FBF7A3FB7F
:104F100000B205A921F8140012E09F49123131F9BD
:104F20001400FBF77AFB9D4A9D4BCDE90201FBF78C
:104F30008AFA0746FBF7A8FB00B205A921F814007E
:104F4000601CC4B2032CB2DB05A9964801F0A4F89A
:104F500005A9954801F0A0F800243AE0301200B20B
:104F600040F26631884215DD301200B2B0F5936F21
:104F700010DC894830F914106000401C894A32F96D
:104F80001000081A114651F8241001EB8010114648
:104F900041F824006200521C824B33F912107E4A01
:104FA00032F9140000F08BFF83447B480C3030F959
:104FB00014106000401C7C4A32F91000081A114697
:104FC00051F8241001EB0020114641F82400601C28
:104FD000C4B2032CC2DB7348B0F90A00B0F5E87F15
:104FE00007DD7248407820F00100401C6F4948708E
:104FF00005E06E48407820F001006C494870694A2D
:10500000B2F90210B2F9020000F059FF0746654AF2
:10501000B2F90A10B2F90A0000F051FF3D18614AD6
:10502000B2F90610B2F9060000F049FF00EB0508DE
:105030004046FBF7E9FA0746FCF7B4FE8246594AB8
:10504000B2F90A10B2F90200FFF742F95849088094
:105050002846FBF7D9FA04902846FBF7D5FA0290C8
:10506000FCF7A0FE03900499FBF7D6F88046FBF707
:10507000F2FA07464B49B1F906003946FFF728F91D
:105080004B494880474AB2F90210474AB2F9020038
:1050900000F015FF8046434AB2F90A10424AB2F9BD
:1050A0000A0000F00CFF08EB00013E48B0F90620B2
:1050B0003D48B0F90600684301FB12000190FBF780
:1050C000A3FA51460290FBF7A7F80746FBF7C3FA8D
:1050D000344A0490B2F90210334AB2F90A0000F0DF
:1050E000EEFE07462F4AB2F90A102F4AB2F9020023
:1050F00000F0E5FE381A03900499FFF7E9F82C490F
:105100008880084680882B49098F084400B22849C6
:1051100088800846B0F904000A2190FBF1F000B243
:10512000234988805846FBF76FFA80465146FBF7C3
:1051300073F80746FBF78FFA00B21F4908801B4837
:105140000078C0F3400078B91C48B0F90000A0EB2B
:10515000E00000B21949088008460088164909880D
:10516000084400B215490880134800881349B1F972
:105170000010A0EBE10000B20F49088007B0BDE8C5
:10518000F08F00000C00002010000020095F630079
:105190008348323FF0030020FC03002004560E2D0C
:1051A000B29DEF3F20000020E4030020CA00002051
:1051B000BC00002094040020080000202C000020E7
:1051C00010B516480088D0B915480078C0F38000A3
:1051D000A8B113480078C0F34000E8B9104800783F
:1051E000C0F38010C0B90E48007820F00200801C87
:1051F0000B4908700B4880880B4908800CE0084870
:105200000078C0F3400038B90122FF210220FFF7E7
:105210003BFA01200549087210BD000094000020EF
:10522000CA000020BC0000209600002016050020C7
:1052300005480078C0F3400028B10348007820F00A
:105240000200014908707047CA00002010B5002113
:10525000012000F009F810BD10B5044621460020D9
:1052600000F002F810BD000070B504460D46242081
:1052700001F016F84D2001F013F80CB1212100E0E7
:105280003E21084601F00CF800200749074A127831
:105290008854284601F004F80549044A1278885CCD
:1052A00000F0FEFF70BD0000B1010020B001002041
:1052B000B901002070B504460D460623024A29466E
:1052C000204600F021F870BDD801002010B5FCF791
:1052D000D7FB00200149088010BD0000CC00002051
:1052E00010B5FCF7E3FB04460020FCF70FFC20465A
:1052F00010BD10B5FCF7DAFB04460120FCF706FCF4
:10530000FCF7ACFC204610BD2DE9F04104460E46EA
:10531000174698463D46FCF75BFC6106080EFCF715
:105320001FFCFCF7C3FC48B9FCF798FC1D4800883B
:10533000401C00B21B490880BDE8F0813046FCF7F4
:105340000FFCFCF7B3FC40B9FCF788FC154800885B
:10535000401C00B213490880EEE7FCF739FC01213C
:1053600001EB4401C8B2FCF7FBFBFCF79FFC40B922
:10537000FCF774FC0B480088401C00B20949088007
:10538000DAE703E0FFF7ACFF05F8010BA8F1010035
:10539000C0B2B0F10008F5D1FFF7ABFF287000BF35
:1053A000CAE70000CC00002070B504460D46164642
:1053B000600032462946FDF77DFC28B90348008885
:1053C000401C00B20149088070BD0000CC000020E4
:1053D00010B5002400BF06E040F2DC500A4921F875
:1053E0001400601CC4B20C2CF6DB482140F2CF70D4
:1053F000FEF730F8472144F61F60FEF7DFF84FF460
:105400007A7001F009F810BD2A04002010B5FFF7EA
:105410005DFFFCF7FDFAFCF7A3FEFBF73FFB10BDB9
:1054200010B5052407E0601EC4B2FFF7EFFF044883
:10543000008800B901E0002CF5D100BF10BD0000CC
:10544000CC0000202DE9F04F85B00020049003909F
:1054500000900027FD480088FD490988401A00B2E5
:1054600000287DDDF948008844F620610844F849A9
:105470000880FFF791F9002514E0BF10F54830F9D6
:10548000150040F24C41884201DD47F08007F148A9
:1054900030F9150040F26C71884201DA47F040079C
:1054A000681CC5B2042DE8DBEB480078874209D1BF
:1054B000EA480078FA2808DAE8480078401CE7490A
:1054C000087002E00020E5490870E3480770E148F1
:1054D000B0F9060040F24C4188421DDC0020E04952
:1054E000086048608860DF4908804880DE48408D59
:1054F000002811DDDD48007838B1DD48007800F083
:10550000010010B1FFF75CFE06E0D9480078C0F357
:10551000400008B1FFF78CFED0480078142878D1FD
:10552000D3480078C0F3400050B1CF48408D0028E8
:105530006FD1C94800785F286BD1FFF779FE68E02A
:105540000025C5480078572803D14FF40070C94999
:105550000880C14800786B2806D100F0FBFB00E012
:1055600022E1C54908801DE0BF48408D30B9BA48E6
:1055700000786F2802D1FFF723FE13E0B6480078C9
:10558000972804D14FF40070BC4908800AE0B24863
:105590000078A72806D1B648407820F00200801C89
:1055A000B34948700025AC480078BB2807D1AE4805
:1055B000008D801C01B2AC480185012522E0A6487F
:1055C0000078B72807D1A848008D801E01B2A648F0
:1055D0000185012516E0A0480078BE2807D1A24821
:1055E000C08C801C00B2A049C88401250AE09A48FA
:1055F0000078BD2806D19C48C08C801E00B29A4914
:10560000C88401252DB1012000F04CFF00209349F2
:1056100008704FF0000A00253BE0281D8D4931F944
:10562000100040F21451884201DA012000E000200D
:1056300005EB45018840291D864A32F9111040F2D8
:105640001452914209DD291D824A32F9111040F2AB
:10565000A462914201DA012100E0002105EB45023C
:10566000521C91400843291D7A4A32F9111040F228
:10567000A462914201DD012100E0002105EB450219
:10568000921C9140084340EA0A001FFA80FA681C05
:10569000C5B2042DC1DB00250EE073482A3030F876
:1056A000150000EA0A00002801DD012000E00020CA
:1056B0006E494855681CC5B2062DEEDB6B48407834
:1056C00020B96F48B0F90000322810DD6848007832
:1056D000C0F3C000D0B90020624908804880644807
:1056E000007820F008000830614908700EE060483A
:1056F0000078C0F3C00018B1002059490860486024
:105700005B48007820F008005949087057488078B5
:10571000B0B15748007820F0080055490870084695
:105720000078C0F30010D0B900204E4908804880AE
:105730004F48007820F0100010304D4908700EE0FE
:105740004B480078C0F3001018B1002044490860AD
:1057500048604748007820F01000454908704348E9
:10576000007830B94248007820F00100401C4049E0
:1057700008703E48C07880B13D480078C0F34010C2
:10578000F0BB3B48007820F02000203038490870FA
:105790003C4880883C49088043E03548007820F048
:1057A0002000334908703CE038480078052837D29B
:1057B000DFE800F0030D13191F0034480078401C87
:1057C00032490870FCF706FC00B129E000BF2F4801
:1057D0000078401C2D49087000BF2C480078401C00
:1057E0002A49087000BF29480078401C27490870E2
:1057F00000BF002025490870FDF784FA244800E026
:105800000FE0006811490968884208D20F48006813
:1058100049F6404108441E490860FDF773FA00BF8D
:1058200000BFFEF765FF37E000F094FA0749086013
:105830000846008810490988401A16490880084619
:10584000008840F6C411884226DB26E0880000204C
:10585000980100202A0400207D0100207C01002006
:105860004005002082010020940400209B000020BD
:10587000CA000020940000208C000020900000202E
:10588000D2000020BC000020960000209C010020D7
:10589000340000208E000020C6E700BFDE480088EC
:1058A000DE490880DE48B0F90400002803DDDC484A
:1058B000B0F9040003E0DA48B0F904004042462899
:1058C0002ADAD8480078C0F3401028B3D64989882E
:1058D000D64A1288891A08B210F1B40F02DC00F51A
:1058E000B47108B2B42802DBA0F5B47108B2CD4996
:1058F000497801F0010121B9CA494978C1F3810110
:1059000049B1C7498A88CA49097E4143A2EB61115E
:1059100009B2C34A918003E0C3488088C349088024
:10592000C4480088C4498880C2484088C880BC48B0
:10593000B0F90200002803DDB948B0F9020003E025
:10594000B748B0F902004042B549B1F9001000294A
:1059500003DDB349B1F9001003E0B149B1F900101A
:10596000494288420DDDAE48B0F90200002803DD4F
:10597000AB48B0F9020011E0A948B0F9020040427A
:105980000CE0A748B0F90000002803DDA448B0F9F6
:10599000000003E0A248B0F900004042B0F5FA7FF1
:1059A00037DA9F48B0F90200002803DD9C48B0F9BF
:1059B000020003E09A48B0F9020040429849B1F968
:1059C0000010002903DD9649B1F9001003E0944965
:1059D000B1F90010494288420DDD9148B0F902004A
:1059E000002803DD8E48B0F9020014E08C48B0F9BD
:1059F000020040420FE08A48B0F90000002803DDB1
:105A00008748B0F9000006E08548B0F90000404240
:105A100001E04FF4FA7000900024E5E0814800783E
:105A2000C0F3C00020B97F480078C0F3001078B3FD
:105A3000022C2DDA7F4830F91400794931F914101D
:105A400000EB410010F5FA7F01DA7C4815E0794857
:105A500030F91400724931F9141000EB4100B0F52F
:105A6000FA7F02DD4FF4FA7007E0724830F9140053
:105A70006B4931F9141000EB41006B4931F81410F7
:105A8000411A6B48263030F8140008440FFA80F8A9
:105A9000022C0BD1664890F821001B306049B1F907
:105AA00004104843401100B2019025E05D480078A1
:105AB000C0F3C000C8B95E4890F820001B305849B8
:105AC00031F914104843001100B201905548007894
:105AD000C0F3001080B15648807D00FB08F00199AA
